:02000300037B7D
:020005000517DD
:020007000539B9
:03000000020447B0
:0C044700787FE4F6D8FD75813E02048E3B
:03000B00020013DD
:10000E00C2AF80FE3212001285D00B75D008FAC234
:10001E008CE58A241FF58AE58C34FCF58CD28CECA9
:10002E002415F8E6BC020274FFC39581B414004097
:10003E00CF7903780E16E608700BC2AFE630E103F7
:10004E004418F6D2AF08D9EDEA8BD0300003D201B6
:10005E0022D50DFAC0E0C0D0C0F0C083C082C0006F
:10006E00C001C002C003C004C005C006C007E50C35
:10007E0023240FF87440C2AF46F6D2AFD200E50C7F
:10008E00FF23240FF80F0808EFB50C0610010343E9
:10009E008701BF03047F00780FE630E4E800E50C2B
:1000AE00C39F5020050C7414250CF8E6FDA681089C
:1000BE00E6AE0CBE020274FFCDF8E86D60E008E615
:1000CE00C0E080F6E50CD39F4027E50C2415F8E63A
:1000DE00AE0CBE020274FFFD18E6CDF8E5816D6030
:1000EE0006D0E0F61880F5E50C2414C8F6150C8041
:1000FE00D3750D05E50C23240FF87F04C2AFE6106F
:02010E00E61EEB
:1001100030E00310E20C7F0030E10730E3047F0899
:1001200054F4C2E7C6D2AF54804207C20022F6D2CE
:10013000AFD007D006D005D004D003D002D001D074
:1001400000D082D083D0F0D0D0D0E0C2002278148A
:10015000A68174026006FF0876FFDFFB7F03E47868
:100160000EF608F608DFFA780F7630900003740177
:1001700093C0E0E493C0E0750D05438901758A18CA
:0B018000758CFCD28CD2AFD2A92202F9
:10055B000A213F065B4F666D7D077F6F08370701EA
:06056B000203040506076F
:10037B007F0112018B7F0212018B7D017F02120222
:10038B0014E52E2401FFE4352DFEE4352CFDE43578
:10039B002BFC12027303D40000000103D8000000F1
:1003AB000203DC0000000303E00000000403E40090
:1003BB0000000503EC0000000603F4000000070337
:1003CB00FC0000000800000402D2A4800ED2A4801E
:1003DB0012D2A48016D2A4801AC2A4D2A3D2A28015
:1003EB0016C2A4D2A3C2A2800EC2A4C2A3D2A28060
:1003FB0006C2A4C2A3C2A27437252EF8E62421F8A4
:10040B00E6F580E4FAF9F8E52E2401F52EEA352D10
:10041B00F52DE9352CF52CE8352BF52BAF2EAE2D24
:10042B00AD2CFCE47B081204D3AC00AD01AE02AFE3
:0C043B00038F2E8E2D8D2C8C2B02038540
:10051700E4FAF9F8E5322401F532EA3531F531E943
:100527003530F530E8352FF52F7DC87F02120214DC
:0205370080DE64
:10053900E4FAF9F8E5362401F536EA3535F535E911
:100549003534F534E83533F5337DC87F02120214AA
:0205590080DE42
:10018B00EFD3940240037FFF22740F2F2FF8E6204A
:10019B00E5F4C2AFE64430F6D2AFAE0CEEC39F50DF
:1001AB00210E74142EF8E6F908E618BE020274FF4D
:1001BB00FDED69600909E71919F7090980F31616AE
:1001CB0080DAEED39F400405810581EED39F402258
:1001DB0074142EF808E6F9EEB50C02A98118060680
:1001EB00E6FDED6960091919E70909F71980F31E96
:1001FB0080D9EF2414F8E604F8EF2F049000039352
:09020B00F608EF2F93F67F0022A4
:100214008FF0E4FFFEE50C23240EF8C2A930F70D9D
:100224007F08E6600B2DF660325030800730F1060F
:10023400EDF660277E020830F010C2AFE610E72525
:100244000E30E20CD2AF7F048014C2AFE610E71583
:1002540054EC4EF6D2AFD2A902008A7F0808EF44CC
:0F02640083F4C2AF56C6D2AFD2A954804FFF2247
:1004530002014EE493A3F8E493A34003F68001F270
:1004630008DFF48029E493A3F85407240CC8C333AA
:10047300C4540F4420C8834004F456800146F6DF79
:10048300E4800B010204081020408090055BE47EA9
:10049300019360BCA3FF543F30E509541FFEE4936E
:1004A300A360010ECF54C025E060A840B8E493A335
:1004B300FAE493A3F8E493A3C8C582C8CAC583CA60
:1004C300F0A3C8C582C8CAC583CADFE9DEE780BE18
:010571000089
:1004D300C2D5E830E70FB2D5E4C39BFBE49AFAE454
:1004E30099F9E498F8EC30E717B2D512050912022E
:1004F300E9E4C39BFBE49AFAE499F9E498F88003EE
:100503001202E930D50DE4C39FFFE49EFEE49DFD96
:04051300E49CFC2246
:10027300D083D082E4937012740193700DA3A3937F
:10028300F8740193F5828883E4737402936C70129B
:100293007403936D700C7404936E70067405936FFE
:0A02A30060DDA3A3A3A3A3A380CAF8
:1002AD0075F008758200EF2FFFEE33FECD33CDCC08
:1002BD0033CCC58233C5829BED9AEC99E58298408B
:1002CD000CF582EE9BFEED9AFDEC99FC0FD5F0D668
:1002DD00E4CEFBE4CDFAE4CCF9A88222B800C1B992
:1002ED000059BA002DEC8BF084CFCECDFCE5F0CBD0
:1002FD00F97818EF2FFFEE33FEED33FDEC33FCEB09
:10030D0033FB10D703994004EB99FB0FD8E5E4F9C3
:10031D00FA227818EF2FFFEE33FEED33FDEC33FCB0
:10032D00C933C910D7059BE99A4007EC9BFCE99AA4
:10033D00F90FD8E0E4C9FAE4CCFB2275F010EF2FE9
:10034D00FFEE33FEED33FDCC33CCC833C810D707E9
:10035D009BEC9AE899400AED9BFDEC9AFCE899F824
:0E036D000FD5F0DAE4CDFBE4CCFAE4C8F922B7
:00000001FF
